:0400000081EF0EF08E
:1000080000C016F001C015F0F2A421D0F294CA0E77
:10001800D66EF30ED76E010E275C006E000E2858C0
:10002800016E00C027F001C028F065EC0AF0FF0E51
:10003800551802E1FF0E54180AE1010E4E5C006EDD
:10004800000E4F58016E00C04EF001C04FF016C0B0
:0800580000F015C001F01100D9
:100060000134083609360450085E0550D8A0053C16
:10007000095E003601360F0E0C6E01340836093663
:10008000045000A006D0085E0550D8A0053C095ECB
:1000900005D008260550D8B0053C092600360136A3
:1000A0000C2EEBD700B006D0045008260550D8B06F
:0800B000053C092600001200C6
:1000B8000450000A08E10550000A05E1FF0E006E31
:1000C8007F0E016E57D00D6A096A086A0150001048
:1000D800D8B4000C015005180A6E0ABE0D1E0B6A32
:1000E80005AE05D0041E051E042AD8B4052A01AEA3
:1000F80005D0001E011E002AD8B4012A015005109F
:100108000A6E0ABE10D0A8DF0BB020D00DAE000CCE
:10011800001E011E002AD8B4012A081E091E082A3A
:10012800D8B4092A000C05AE0DD001BE07D0015085
:10013800096E0050086E016A006AE8D7016A006A11
:10014800002A000C011E001E0B2ADDD7082AD8B48D
:10015800092A0450085CD8A4D9D70550095CD8A44A
:10016800D5D7096A086A002AD8B4012A01AECED7C1
:060178000000FF0C120064
:10017E00080E016E010E015C0CE3000160AF02D0AF
:10018E00808001D0809060376091809480840106D9
:04019E00F1D7120083
:1001A200000E0001801902E1010E7F1925E0000E08
:1001B200801902E1030E7F191FE0000E801902E18F
:1001C200050E7F1919E0000E801902E1070E7F1952
:1001D20013E0000E801902E1080E7F190DE0000EF7
:1001E200801902E10A0E7F1907E0000E801902E170
:1001F2000C0E7F1901E005D01F0E006E000E016E7D
:1002020068D0000E801902E1040E7F1913E0000E7F
:10021200801902E1060E7F190DE0000E801902E13D
:10022200090E7F1907E0000E801902E10B0E7F19FB
:1002320001E005D01E0E006E000E016E4AD0000EC7
:10024200801902E1020E7F1940E1040E046E000ED5
:10025200056E7DC000F07EC001F02DDF08C000F009
:1002620009C001F0000E011802E1000E001814E1AD
:10027200640E046E000E056E7DC000F07EC001F0BB
:100282001ADF08C000F009C001F0000E011802E1F7
:10029200000E001801E014D0900E046E010E056EDF
:1002A2007DC000F07EC001F006DF08C000F009C08A
:1002B20001F0000E011802E1000E001801E005D065
:1002C2001D0E006E000E016E04D01C0E006E000E9C
:0402D200016E1200A7
:1002D600800E00017819006E800E005C02E1000EAF
:1002E600775DD8A03FD1800E006E800E7A19005C33
:1002F60002E179510008D8B035D1800E006E800E2B
:100306007A19005C02E179510C08D8A02BD1800E35
:10031600006E800E7C19005C02E17B510008D8B0AB
:1003260021D1800E006E800E7C19005C02E17B51AB
:100336001F08D8A017D10A0E046E000E056E7BC0EA
:1003460000F07CC001F0B5DE600E0024F66E1F0ED4
:100356000120F76E000EF86E000E01BEFF0EF822A9
:100366000900F5CF60F008DF800E0001606F04DF42
:10037600809280820A0E046E000E056E7BC000F02D
:100386007CC001F096DE08C000F009C001F0600EE6
:100396000024F66E1F0E0120F76E000EF86E000E9A
:1003A60001BEFF0EF8220900F5CF60F0E5DE400E33
:1003B6000001606FE1DE809280820A0E046E000EFC
:1003C600056E79C000F07AC001F073DE600E00247D
:1003D600F66E1F0E0120F76E000EF86E000E01BEBF
:1003E600FF0EF8220900F5CF60F0C6DE200E0001F0
:1003F600606FC2DE809280820A0E046E000E056E69
:1004060079C000F07AC001F054DE08C000F009C0DF
:1004160001F0600E0024F66E1F0E0120F76E000E2E
:10042600F86E000E01BEFF0EF8220900F5CF60F04F
:10043600A3DE100E0001606F9FDE80928082E80EC0
:10044600046E030E056E77C000F078C001F031DE51
:10045600600E0024F66E1F0E0120F76E000EF86E79
:10046600000E01BEFF0EF8220900F5CF60F084DE13
:10047600080E0001606F80DE80928082640E046E3A
:10048600000E056E77C000F078C001F012DE0A0E8D
:10049600046E000E056E0DDE08C000F009C001F006
:1004A600600E0024F66E1F0E0120F76E000EF86E29
:1004B600000E01BEFF0EF8220900F5CF60F05CDEEB
:1004C600040E0001606F58DE809280820A0E046E70
:1004D600000E056E77C000F078C001F0EADD0A0E66
:1004E600046E000E056EE5DD08C000F009C001F0DF
:1004F600600E0024F66E1F0E0120F76E000EF86ED9
:10050600000E01BEFF0EF8220900F5CF60F034DEC2
:10051600020E0001606F30DE809280820A0E046E49
:10052600000E056E77C000F078C001F0C2DD08C08D
:1005360000F009C001F0600E0024F66E1F0E0120C7
:10054600F76E000EF86E000E01BEFF0EF8220900CF
:10055600F5CF60F011DE010E0001606F0DDE8092B6
:100566008082C7D2800E006E800E00017C19005C6E
:1005760002E17B5100080AE2800E006E800E7C19B3
:10058600005C02E17B511F0801E3E8D0FF0E606FBB
:10059600F3DD800E0001606FEFDD80928082FF0E3A
:1005A6000001606FE9DD400E0001606FE5DD8092BD
:1005B60080820A0E046E000E056E79C000F07AC0C5
:1005C60001F077DD600E0024F66E1F0E0120F76E37
:1005D600000EF86E000E01BEFF0EF8220900F5CFE0
:1005E60060F0CADD200E0001606FC6DD8092808259
:1005F6000A0E046E000E056E79C000F07AC001F096
:1006060058DD08C000F009C001F0600E0024F66E47
:100616001F0E0120F76E000EF86E000E01BEFF0ED3
:10062600F8220900F5CF60F0A7DD100E0001606F1B
:10063600A3DD80928082E80E046E030E056E77C0FD
:1006460000F078C001F035DD600E0024F66E1F0E56
:100656000120F76E000EF86E000E01BEFF0EF822A6
:100666000900F5CF60F088DD080E0001606F84DDBB
:1006760080928082640E046E000E056E77C000F0D4
:1006860078C001F016DD0A0E046E000E056E11DD4F
:1006960008C000F009C001F0600E0024F66E1F0EBF
:1006A6000120F76E000EF86E000E01BEFF0EF82256
:1006B6000900F5CF60F060DD040E0001606F5CDDBF
:1006C600809280820A0E046E000E056E77C000F0DE
:1006D60078C001F0EEDC0A0E046E000E056EE9DC51
:1006E60008C000F009C001F0600E0024F66E1F0E6F
:1006F6000120F76E000EF86E000E01BEFF0EF82206
:100706000900F5CF60F038DD020E0001606F34DDC0
:10071600809280820A0E046E000E056E77C000F08D
:1007260078C001F0C6DC08C000F009C001F0600E18
:100736000024F66E1F0E0120F76E000EF86E000EF6
:1007460001BEFF0EF8220900F5CF60F015DD010E9F
:100756000001606F11DD80928082CBD1800E006E29
:10076600800E00017A19005C02E1795100080AE264
:10077600800E006E800E7A19005C02E179510C0839
:1007860001E3ECD00A0E046E000E056E7BC000F08D
:100796007CC001F08EDC600E0024F66E1F0E012078
:1007A600F76E000EF86E000E01BEFF0EF82209006D
:1007B600F5CF60F0E1DC800E0001606FDDDC809239
:1007C60080820A0E046E000E056E7BC000F07CC0AF
:1007D60001F06FDC08C000F009C001F0600E0024D3
:1007E600F66E1F0E0120F76E000EF86E000E01BEAB
:1007F600FF0EF8220900F5CF60F0BEDC400E0001C6
:10080600606FBADC80928082FF0E0001606FB4DCFC
:10081600200E0001606FB0DC80928082FF0E000126
:10082600606FAADC100E0001606FA6DC80928082E9
:10083600E80E046E030E056E77C000F078C001F076
:1008460038DC600E0024F66E1F0E0120F76E000ED7
:10085600F86E000E01BEFF0EF8220900F5CF60F01B
:100866008BDC080E0001606F87DC80928082640E4C
:10087600046E000E056E77C000F078C001F019DC3A
:100886000A0E046E000E056E14DC08C000F009C0E6
:1008960001F0600E0024F66E1F0E0120F76E000EAA
:1008A600F86E000E01BEFF0EF8220900F5CF60F0CB
:1008B60063DC040E0001606F5FDC809280820A0EAA
:1008C600046E000E056E77C000F078C001F05CEC97
:1008D60000F00A0E046E000E056E5CEC00F008C017
:1008E60000F009C001F0600E0024F66E1F0E012014
:1008F600F76E000EF86E000E01BEFF0EF82209001C
:10090600F5CF60F039DC020E0001606F35DC8092B5
:1009160080820A0E046E000E056E77C000F078C065
:1009260001F05CEC00F008C000F009C001F0600EB8
:100936000024F66E1F0E0120F76E000EF86E000EF4
:1009460001BEFF0EF8220900F5CF60F015DC010E9E
:100956000001606F11DC80928082CBD0800E000196
:100966007819006E800E005C02E1000E775DD8B04B
:10097600C0D00A0E046E000E056E7BC000F07CC06F
:1009860001F05CEC00F0600E0024F66E1F0E0120F4
:10099600F76E000EF86E000E01BEFF0EF82209007B
:1009A600F5CF60F0BFEC00F0800E0001606FBFEC89
:1009B60000F0809280820A0E046E000E056E7BC0E7
:1009C60000F07CC001F05CEC00F008C000F009C04B
:1009D60001F0600E0024F66E1F0E0120F76E000E69
:1009E600F86E000E01BEFF0EF8220900F5CF60F08A
:1009F600BFEC00F0400E0001606FBFEC00F080928B
:100A060080820A0E046E000E056E79C000F07AC070
:100A160001F05CEC00F0600E0024F66E1F0E012063
:100A2600F76E000EF86E000E01BEFF0EF8220900EA
:100A3600F5CF60F0BFEC00F0200E0001606FBFEC58
:100A460000F0809280820A0E046E000E056E79C058
:100A560000F07AC001F05CEC00F008C000F009C0BC
:100A660001F0600E0024F66E1F0E0120F76E000ED8
:100A7600F86E000E01BEFF0EF8220900F5CF60F0F9
:100A8600BFEC00F0100E0001606FBFEC00F080922A
:100A96008082FF0E0001606FBFEC00F0080E0001BF
:100AA600606FBFEC00F080928082FF0E0001606FE5
:100AB600BFEC00F0040E0001606FBFEC00F0809206
:100AC6008082FF0E0001606FBFEC00F0020E000195
:100AD600606FBFEC00F080928082FF0E0001606FB5
:100AE600BFEC00F0010E0001606FBFEC00F08092D9
:040AF60080821200E8
:100AFA00504A512A000E511802E13C0E501842E1A8
:100B0A00506A516A0001694B6A2B000E6A1902E1A8
:100B1A003C0E691937E1696B6A6B6D4B6E2B000EDF
:100B2A006E1902E1180E6D192DE16D6B6E6B614B3A
:100B3A00622B4AC07DF04BC07EF065C07FF066C074
:100B4A0080F0D1EC00F0010E0024026E000E0120AC
:100B5A00036E00016251031802E10250611912E1A9
:100B6A00010E616F000E626F654B662B000E6619EF
:100B7A0002E10D0E651906E1010E656F000E666F42
:060B8A004A4A4B2A12004A
:100B90000B6A0A6A096A00500402F4CF09F0F3CF25
:100BA00008F001500502F4CF0BF0F3CF0AF000502B
:100BB0000502F3500926F4500A22E86A0B2201507C
:100BC0000402F3500926F4500A22E86A0B2208C0F6
:100BD00000F009C001F00AC002F00BC003F01200DF
:100BE000800E00017819006E800E005C02E1000E9C
:100BF000775DD8A023D1800E7819006E800E005C3E
:100C000002E1180E775DD8B019D1800E7A19006E06
:100C1000800E005C02E1000E795DD8A00FD1800E3D
:100C20007A19006E800E005C02E13C0E795DD8B04E
:100C300005D1800E7C19006E800E005C02E1000E72
:100C40007B5DD8A0FBD0800E7C19006E800E005C0E
:100C500002E13C0E7B5DD8B0F1D00A0E046E000EAE
:100C6000056E77C000F078C001F05CEC00F0600E1B
:100C70000024F66E1F0E0120F76E000EF86E000EB7
:100C800001BEFF0EF8220900F5CF60F0BFEC00F0C6
:100C9000800E0001606FBFEC00F0809280820A0E2F
:100CA000046E000E056E77C000F078C001F05CECB9
:100CB00000F008C000F009C001F0600E0024F66EDC
:100CC0001F0E0120F76E000EF86E000E01BEFF0E23
:100CD000F8220900F5CF60F0BFEC00F0400E0001F3
:100CE000606FBFEC00F080928082FF0E0001606FA9
:100CF000BFEC00F0200E0001606FBFEC00F08092AE
:100D000080820A0E046E000E056E79C000F07AC073
:100D100001F05CEC00F0600E0024F66E1F0E012066
:100D2000F76E000EF86E000E01BEFF0EF8220900ED
:100D3000F5CF60F0BFEC00F0100E0001606FBFEC6B
:100D400000F0809280820A0E046E000E056E79C05B
:100D500000F07AC001F05CEC00F008C000F009C0BF
:100D600001F0600E0024F66E1F0E0120F76E000EDB
:100D7000F86E000E01BEFF0EF8220900F5CF60F0FC
:100D8000BFEC00F0080E0001606FBFEC00F0809235
:100D90008082FF0E0001606FBFEC00F0040E0001C6
:100DA000606FBFEC00F0809280820A0E046E000E2D
:100DB000056E7BC000F07CC001F05CEC00F0600EC2
:100DC0000024F66E1F0E0120F76E000EF86E000E66
:100DD00001BEFF0EF8220900F5CF60F0BFEC00F075
:100DE000020E0001606FBFEC00F0809280820A0E5C
:100DF000046E000E056E7BC000F07CC001F05CEC60
:100E000000F008C000F009C001F0600E0024F66E8A
:100E10001F0E0120F76E000EF86E000E01BEFF0ED1
:100E2000F8220900F5CF60F0BFEC00F0010E0001E0
:100E3000606FBFEC00F0809280827DD2800E000156
:100E40007819006E800E005C02E1180E775D0AE2F0
:100E5000800E7819006E800E005C02E1000E775D56
:100E600001E3C0D0FF0E606FBFEC00F0800E000108
:100E7000606FBFEC00F080928082FF0E0001606F17
:100E8000BFEC00F0400E0001606FBFEC00F08092FC
:100E90008082FF0E0001606FBFEC00F0200E0001A9
:100EA000606FBFEC00F0809280820A0E046E000E2C
:100EB000056E79C000F07AC001F05CEC00F0600EC5
:100EC0000024F66E1F0E0120F76E000EF86E000E65
:100ED00001BEFF0EF8220900F5CF60F0BFEC00F074
:100EE000100E0001606FBFEC00F0809280820A0E4D
:100EF000046E000E056E79C000F07AC001F05CEC63
:100F000000F008C000F009C001F0600E0024F66E89
:100F10001F0E0120F76E000EF86E000E01BEFF0ED0
:100F2000F8220900F5CF60F0BFEC00F0080E0001D8
:100F3000606FBFEC00F080928082FF0E0001606F56
:100F4000BFEC00F0040E0001606FBFEC00F0809277
:100F500080820A0E046E000E056E7BC000F07CC01D
:100F600001F05CEC00F0600E0024F66E1F0E012014
:100F7000F76E000EF86E000E01BEFF0EF82209009B
:100F8000F5CF60F0BFEC00F0020E0001606FBFEC27
:100F900000F0809280820A0E046E000E056E7BC007
:100FA00000F07CC001F05CEC00F008C000F009C06B
:100FB00001F0600E0024F66E1F0E0120F76E000E89
:100FC000F86E000E01BEFF0EF8220900F5CF60F0AA
:100FD000BFEC00F0010E0001606FBFEC00F08092EA
:100FE0008082A9D1800E00017A19006E800E005C0B
:100FF00002E13C0E795D0AE2800E7A19006E800EE5
:10100000005C02E1000E795D01E3C1D00A0E046EBE
:10101000000E056E77C000F078C001F05CEC00F0C7
:10102000600E0024F66E1F0E0120F76E000EF86EA3
:10103000000E01BEFF0EF8220900F5CF60F0BFECF4
:1010400000F0800E0001606FBFEC00F080928082A3
:101050000A0E046E000E056E77C000F078C001F035
:101060005CEC00F008C000F009C001F0600E002444
:10107000F66E1F0E0120F76E000EF86E000E01BE18
:10108000FF0EF8220900F5CF60F0BFEC00F0400E33
:101090000001606FBFEC00F080928082FF0E0001C3
:1010A000606FBFEC00F0200E0001606FBFEC00F03D
:1010B00080928082FF0E0001606FBFEC00F0100E86
:1010C0000001606FBFEC00F080928082FF0E000193
:1010D000606FBFEC00F0080E0001606FBFEC00F025
:1010E00080928082FF0E0001606FBFEC00F0040E62
:1010F0000001606FBFEC00F0809280820A0E046EE7
:10110000000E056E7BC000F07CC001F05CEC00F0CE
:10111000600E0024F66E1F0E0120F76E000EF86EB2
:10112000000E01BEFF0EF8220900F5CF60F0BFEC03
:1011300000F0020E0001606FBFEC00F08092808230
:101140000A0E046E000E056E7BC000F07CC001F03C
:101150005CEC00F008C000F009C001F0600E002453
:10116000F66E1F0E0120F76E000EF86E000E01BE27
:10117000FF0EF8220900F5CF60F0BFEC00F0010E81
:101180000001606FBFEC00F080928082D4D0800EAE
:1011900000017C19006E800E005C02E13C0E7B5D5C
:1011A0000AE2800E7C19006E800E005C02E1000EE7
:1011B0007B5D01E3C0D00A0E046E000E056E77C0A1
:1011C00000F078C001F05CEC00F0600E0024F66ED8
:1011D0001F0E0120F76E000EF86E000E01BEFF0E0E
:1011E000F8220900F5CF60F0BFEC00F0800E00019E
:1011F000606FBFEC00F0809280820A0E046E000ED9
:10120000056E77C000F078C001F05CEC00F008C01B
:1012100000F009C001F0600E0024F66E1F0E0120E0
:10122000F76E000EF86E000E01BEFF0EF8220900E8
:10123000F5CF60F0BFEC00F0400E0001606FBFEC36
:1012400000F080928082FF0E0001606FBFEC00F022
:10125000200E0001606FBFEC00F0809280820A0EC9
:10126000046E000E056E79C000F07AC001F05CECEF
:1012700000F0600E0024F66E1F0E0120F76E000EC7
:10128000F86E000E01BEFF0EF8220900F5CF60F0E7
:10129000BFEC00F0100E0001606FBFEC00F0809218
:1012A00080820A0E046E000E056E79C000F07AC0CE
:1012B00001F05CEC00F008C000F009C001F0600E25
:1012C0000024F66E1F0E0120F76E000EF86E000E61
:1012D00001BEFF0EF8220900F5CF60F0BFEC00F070
:1012E000080E0001606FBFEC00F080928082FF0E5C
:1012F0000001606FBFEC00F0040E0001606FBFECF6
:1013000000F080928082FF0E0001606FBFEC00F061
:10131000020E0001606FBFEC00F080928082FF0E31
:101320000001606FBFEC00F0010E0001606FBFECC8
:0813300000F08092808212009F
:0A133800000E9EBA010E006E1200B6
:10134200000E301802E1020E2F180DE17F0E006E22
:10135200800E2E18005C02E12D50EC0803E32D6A8A
:101362002E6A01D0B0D095D0000E5B1802E1000EBB
:101372005A1814E1010E00016725006E000E682163
:10138200016E00C067F001C068F0000E681902E14A
:10139200180E671902E1676B686B26D00001010E17
:1013A2006B25006E000E6C21016E00C06BF001C057
:1013B2006CF063C07DF064C07EF05EC07FF05FC001
:1013C20080F0D1EC00F0010E0024026E000E01202C
:1013D200036E00016C51031802E102506B1904E123
:1013E200010E6B6F000E6C6F68D0000E5B1802E18D
:1013F200000E5A1813E1010E5C24006E000E5D20EF
:10140200016E00C05CF001C05DF0000E5D1802E1EB
:101412003C0E5C1802E15C6A5D6A14D0010E5E2427
:10142200006E000E5F20016E00C05EF001C05FF032
:10143200000E5F1802E10D0E5E1804E1010E5E6EF1
:10144200000E5F6E3AD0000E5B1802E1000E5A18D1
:1014520013E1010E5224006E000E5320016E00C0F3
:1014620052F001C053F0000E531802E13C0E521824
:1014720002E1526A536A0BD00001010E6325006E2D
:10148200000E6421016E00C063F001C064F015D04B
:1014920014D0000E591802E1000E5818D8B464D7BF
:1014A200000E591802E1010E58189FE0000E59185B
:1014B20002E1020E5818C7E0EBD7C80E4E6E000EBE
:0814C2004F6E2F6A306A120020
:1014CA0081CF39F0000E3A6E000E3A1802E1EF0EA3
:1014DA00391837E0000E3A1802E1FB0E391831E0EC
:1014EA00000E3A1802E1BF0E39182BE0000E3A1826
:1014FA0002E17F0E391825E0000E3A1802E1FF0ECC
:10150A0039181FE0640E2B6E000E2C6E900E296E99
:10151A00010E2A6E640E2D6E000E2E6E640E236E60
:10152A00000E246E256A266A25C02FF026C030F0E8
:10153A002FC04CF030C04DF04CC056F04DC057F0A3
:10154A00F5D0000E3A1802E1EF0E39180AE1010E41
:10155A002B5C006E000E2C58016E00C02BF001C0EF
:10156A002CF0000E3A1802E1FB0E39180AE1010EBE
:10157A00295C006E000E2A58016E00C029F001C0D5
:10158A002AF0000E3A1802E1BF0E39181DE1FF0ECB
:10159A00551802E1FF0E541817E1010E2D5C006E7A
:1015AA00000E2E58016E00C02DF001C02EF0800EE4
:1015BA00006E800E2E18005C02E12D50000804E334
:1015CA00020E2F6E000E306E000E3A1802E17F0EE8
:1015DA0039181DE1FF0E551802E1FF0E541817E1E4
:1015EA00010E235C006E000E2458016E00C023F029
:1015FA0001C024F0800E006E800E2418005C02E107
:10160A002350000804E3020E256E000E266E000E1B
:10161A002C1802E1640E2B1813E12A50010A02E188
:10162A00900E29180DE1000E2E1802E1640E2D18F5
:10163A0007E1000E241802E1640E231801E176D0B6
:10164A00000E3A1802E1FF0E3918D8A46FD0800EA6
:10165A00006E800E2C18005C02E12B5000080DE28F
:10166A00800E006E800E2C18005C02E12B50500890
:10167A0004E3010E566E000E576E800E006E800E49
:10168A002A18005C02E1295000080EE2800E010AC5
:10169A00006E800E2A18005C02E129507C0804E3DF
:1016AA00010E4C6E000E4D6E800E006E800E2E18CE
:1016BA00005C02E12D5000080EE2800E006E800EE2
:1016CA002E18005C02E12D50500805E3010E2F6E22
:1016DA00000E306E02D02F6A306A800E006E800EC5
:1016EA002418005C02E1235000080EE2800E006E0E
:1016FA00800E2418005C02E12350500805E3010E15
:10170A00256E000E266E02D0256A266A640E2B6E9E
:10171A00000E2C6E900E296E010E2A6E640E2D6E2E
:0E172A00000E2E6E640E236E000E246E120052
:101738000900F5CFE6FF0006FBE10106F9E112001A
:10174800F28EF28AF294020ED56ECA0ED66EF30E9F
:0C175800D76EC80E276E000E286E12001F
:10176400FF0E356EFF0E366EFF0E376EFF0E386EAF
:10177400F00E316E1C0E326E000E336E000E346E9F
:10178400380E3F6E130E406E000E416E000E426E18
:10179400FF0E3B6EFF0E3C6E000E3D6E000E3E6E65
:1017A400AC8A900EAB6E948E949C9EAA03D0AECF5E
:0617B40000F0FBD712005B
:1017BA00800E006E800E2818005C02E12750000897
:1017CA0006E3C80E276E000E286E7DEC05F0000EAB
:1017DA00551802E1000E541823E1000E5B1802E1CD
:1017EA00000E5A180FE16DC077F06EC078F069C02C
:1017FA0079F06AC07AF050C07BF051C07CF0F0EC0E
:10180A0005F00ED04AC077F04BC078F065C079F089
:10181A0066C07AF061C07BF062C07CF06BEC01F0CC
:02182A001200AA
:10182C00000E0001761902E1000E751905E1010E9A
:10183C00006E000E016E35D0000E761902E1010E1D
:10184C00751905E173C000F074C001F02AD0000EC8
:10185C00761902E1020E75190BE173C000F074C029
:10186C0001F073C004F074C005F0C8EC05F019D099
:10187C00000E761902E1030E751911E173C000F028
:10188C0074C001F073C004F074C005F0C8EC05F02E
:10189C0073C004F074C005F0C8EC05F002D0006A07
:0418AC00016A1200BB
:1018B0004C6A4D6A000E551802E1000E541828E1DA
:1018C000640E4E6E000E4F6EFF0E546EFF0E556E80
:1018D000000E5B1802E1000E5A180DE150C052F0E4
:1018E00051C053F069C05CF06AC05DF06DC067F034
:1018F0006EC068F00CD061C06BF062C06CF065C067
:101900005EF066C05FF04AC063F04BC064F03ED04A
:10191000640E4E6E000E4F6E010E5824006E000EC7
:101920005920016E00C058F001C059F0800E5918BE
:10193000006E800E005C02E1030E585C27E3586ADB
:10194000596AC80E4E6E000E4F6E000E5B1802E113
:10195000000E5A180DE152C050F053C051F05CC057
:1019600069F05DC06AF067C06DF068C06EF00CD0C1
:101970006BC061F06CC062F05EC065F05FC066F085
:0E19800063C04AF064C04BF0546A556A12000E
:10198E00000E5B1802E1000E5A18D8A46BD0800E20
:10199E00006E800E4F18005C02E14E50640853E357
:1019AE0031D0FF0E0001776FFF0E786F5CC079F0BB
:1019BE005DC07AF052C07BF053C07CF0F0EC05F0C5
:1019CE0034D067C077F068C078F0FF0E0001796FF1
:1019DE00FF0E7A6F52C07BF053C07CF0F0EC05F036
:1019EE0024D067C077F068C078F05CC079F05DC035
:1019FE007AF0FF0E00017B6FFF0E7C6FF0EC05F0AE
:101A0E0014D013D0000E591802E1000E5818C9E078
:101A1E00000E591802E1010E5818D3E0000E5918A5
:101A2E0002E1020E5818DDE0ECD7800E006E800E3B
:101A3E004F18005C02E14E50000804E3C80E4E6ED3
:101A4E00000E4F6E0ED067C077F068C078F05CC0A5
:101A5E0079F05DC07AF052C07BF053C07CF0F0ECB0
:101A6E0005F06AD0800E006E800E4F18005C02E109
:101A7E004E50640853E331D063C077F064C078F001
:101A8E005EC079F05FC07AF0FF0E00017B6FFF0E33
:101A9E007C6F6BEC01F034D063C077F064C078F0EB
:101AAE00FF0E0001796FFF0E7A6F6BC07BF06CC07A
:101ABE007CF06BEC01F024D0FF0E0001776FFF0E6F
:101ACE00786F5EC079F05FC07AF06BC07BF06CC04F
:101ADE007CF06BEC01F014D013D0000E591802E11B
:101AEE00000E5818C9E0000E591802E1010E5818E0
:101AFE00D3E0000E591802E1020E5818DDE0ECD7C3
:101B0E00800E006E800E4F18005C02E14E500008F1
:101B1E0004E3C80E4E6E000E4F6E0ED063C077F00B
:101B2E0064C078F05EC079F05FC07AF06BC07BF075
:0A1B3E006CC07CF06BEC01F01200AB
:101B4800566A576A000E551802E1000E541803E150
:101B58005A1E5B1E08D0586A596AC80E4E6E000E8F
:081B68004F6E546A556A120029
:101B7000000E261802E1020E25180AE1FF0E2418B5
:101B800002E1EC0E231803E1236A246A01D0AFD0EE
:101B900094D0000E5B1802E1000E5A1816E1010EF7
:101BA0000001675D006E000E6859016E00C067F0AD
:101BB00001C068F0FF0E681902E1FF0E671904E129
:101BC000170E676F000E686F1FD00001010E6B5D6E
:101BD000006E000E6C59016E00C06BF001C06CF01D
:101BE000000E6C1902E1000E6B190EE163C07DF06E
:101BF00064C07EF05EC07FF05FC080F0D1EC00F08A
:101C000000C06BF001C06CF06CD0000E5B1802E1FC
:101C1000000E5A1815E1010E5C5C006E000E5D5856
:101C2000016E00C05CF001C05DF0FF0E5D1802E1C6
:101C3000FF0E5C1804E13B0E5C6E000E5D6E14D06E
:101C4000010E5E5C006E000E5F58016E00C05EF01B
:101C500001C05FF0000E5F1802E1000E5E1804E1A3
:101C60000C0E5E6E000E5F6E3CD0000E5B1802E143
:101C7000000E5A1815E1010E525C006E000E53580A
:101C8000016E00C052F001C053F0FF0E531802E184
:101C9000FF0E521804E13B0E526E000E536E0BD035
:101CA000010E0001635D006E000E6459016E00C0FC
:101CB00063F001C064F015D014D0000E591802E191
:101CC000000E5818D8B465D7000E591802E1010E5D
:101CD00058189BE0000E591802E1020E5818C5E092
:101CE000EBD7C80E4E6E000E4F6E256A266A1200A4
:101CF000AECF01F0ABA202D0AB98AB8801C000F030
:021D00001200CF
:101D0200176A186A196A1A6A1B6A1C6A1D6A1E6AAD
:101D12001F6A206A216A226AF19EFF0E936E926AFE
:101D2200806A0F0EC16E640E2B6E000E2C6E900E2A
:101D3200296E010E2A6E640E2D6E000E2E6E640E3A
:101D4200236E000E246E00016D6B6E6B696B6A6B05
:101D5200506A516AD00E4A6E070E4B6E010E656FC5
:101D6200000E666F010E616F000E626F586A596A4B
:101D72005A6A5B6A546A556A566A576A4C6A4D6A6D
:101D82002F6A306A256A266A456A466A436A446A45
:101D9200476A486A810EAF6EAC84E3DC030E0B6EB9
:101DA2008A0E0C6E550E0D6E0D2EFED70C2EFCD724
:101DB2000B2EFAD7000000006DC077F06EC078F0ED
:101DC20069C079F06AC07AF050C07BF051C07CF0F3
:101DD200F0EC05F0B8DCD58E000E461802E1000EDC
:101DE200451825E1E9DC000E571802E1010E5618EC
:101DF20001E1A9DE000E4D1802E1010E4C1801E1CD
:101E020056DDFF0E551802E1FF0E541810E1000EC8
:101E1200301802E1000E2F1802E0A1EC09F0000ECA
:101E2200261802E1000E251801E0A1DEAFDD9CECD0
:101E320009F00052D8B491D05ADF00C049F0800EA8
:101E42004418006E800E005C02E1060E435CD8B0BE
:101E520084D049502D0A40E049503A0A3DE04950A9
:101E6200200A3AE043C000F044C001F0003600907E
:101E72000136170E00240001716F000E0120726FEF
:101E8200300E495C6F6F706B000E705B0A0E736FE1
:101E9200000E746F47C075F048C076F0C6DC6FC0A4
:101EA20004F070C005F0C8EC05F071C0E9FF72C023
:101EB200EAFFEECF02F0EECF03F00250002603500D
:101EC200012271C0E1FF72C0E2FF00C0E6FF01C063
:101ED200E6FF474A482A41D0434A442A000E4418A2
:101EE20002E1060E431837E117C050F018C051F056
:101EF20019C069F01AC06AF01BC06DF01CC06EF008
:101F02001DC061F01EC062F01FC065F020C066F007
:101F120021C04AF022C04BF0436A446A800E441842
:101F2200006E800E005C02E1060E435C12E243C0CA
:101F320000F044C001F0003600900136170E002474
:101F4200E16E000E0120E26EE66AE66A434A442A26
:0E1F5200E5D7436A446A476A486A3ED7FFD71C
:0B1F6000C0F9A4B0999282F88090FFB5
:020000040030CA
:0E000000000C1F1EFF8181FF0FC00FE00F409C
:00000001FF
